{
  "address": "0xfbE2afc0F676B4Cd250a42172e318244B35658F7",
  "abi": [
    {
      "inputs": [
        {
          "internalType": "string",
          "name": "_tokenName",
          "type": "string"
        },
        {
          "internalType": "string",
          "name": "_tokenSymbol",
          "type": "string"
        }
      ],
      "stateMutability": "nonpayable",
      "type": "constructor"
    },
    {
      "anonymous": false,
      "inputs": [
        {
          "indexed": true,
          "internalType": "address",
          "name": "owner",
          "type": "address"
        },
        {
          "indexed": true,
          "internalType": "address",
          "name": "approved",
          "type": "address"
        },
        {
          "indexed": true,
          "internalType": "uint256",
          "name": "tokenId",
          "type": "uint256"
        }
      ],
      "name": "Approval",
      "type": "event"
    },
    {
      "anonymous": false,
      "inputs": [
        {
          "indexed": true,
          "internalType": "address",
          "name": "owner",
          "type": "address"
        },
        {
          "indexed": true,
          "internalType": "address",
          "name": "operator",
          "type": "address"
        },
        {
          "indexed": false,
          "internalType": "bool",
          "name": "approved",
          "type": "bool"
        }
      ],
      "name": "ApprovalForAll",
      "type": "event"
    },
    {
      "anonymous": false,
      "inputs": [
        {
          "indexed": true,
          "internalType": "address",
          "name": "previousOwner",
          "type": "address"
        },
        {
          "indexed": true,
          "internalType": "address",
          "name": "newOwner",
          "type": "address"
        }
      ],
      "name": "OwnershipTransferred",
      "type": "event"
    },
    {
      "anonymous": false,
      "inputs": [
        {
          "indexed": false,
          "internalType": "uint256",
          "name": "tokenId",
          "type": "uint256"
        },
        {
          "indexed": false,
          "internalType": "address[]",
          "name": "recipients",
          "type": "address[]"
        },
        {
          "indexed": false,
          "internalType": "uint256[]",
          "name": "bps",
          "type": "uint256[]"
        }
      ],
      "name": "SecondarySaleFees",
      "type": "event"
    },
    {
      "anonymous": false,
      "inputs": [
        {
          "indexed": true,
          "internalType": "address",
          "name": "from",
          "type": "address"
        },
        {
          "indexed": true,
          "internalType": "address",
          "name": "to",
          "type": "address"
        },
        {
          "indexed": true,
          "internalType": "uint256",
          "name": "tokenId",
          "type": "uint256"
        }
      ],
      "name": "Transfer",
      "type": "event"
    },
    {
      "anonymous": false,
      "inputs": [
        {
          "indexed": false,
          "internalType": "uint256",
          "name": "tokenId",
          "type": "uint256"
        },
        {
          "indexed": false,
          "internalType": "string",
          "name": "tokenURI",
          "type": "string"
        },
        {
          "indexed": false,
          "internalType": "uint256",
          "name": "time",
          "type": "uint256"
        }
      ],
      "name": "UniverseERC721TokenMinted",
      "type": "event"
    },
    {
      "inputs": [
        {
          "internalType": "address",
          "name": "to",
          "type": "address"
        },
        {
          "internalType": "uint256",
          "name": "tokenId",
          "type": "uint256"
        }
      ],
      "name": "approve",
      "outputs": [],
      "stateMutability": "nonpayable",
      "type": "function"
    },
    {
      "inputs": [
        {
          "internalType": "address",
          "name": "owner",
          "type": "address"
        }
      ],
      "name": "balanceOf",
      "outputs": [
        {
          "internalType": "uint256",
          "name": "",
          "type": "uint256"
        }
      ],
      "stateMutability": "view",
      "type": "function"
    },
    {
      "inputs": [],
      "name": "baseURI",
      "outputs": [
        {
          "internalType": "string",
          "name": "",
          "type": "string"
        }
      ],
      "stateMutability": "view",
      "type": "function"
    },
    {
      "inputs": [
        {
          "internalType": "address",
          "name": "receiver",
          "type": "address"
        },
        {
          "internalType": "string[]",
          "name": "tokenURIs",
          "type": "string[]"
        },
        {
          "components": [
            {
              "internalType": "address payable",
              "name": "recipient",
              "type": "address"
            },
            {
              "internalType": "uint256",
              "name": "value",
              "type": "uint256"
            }
          ],
          "internalType": "struct HasSecondarySaleFees.Fee[]",
          "name": "fees",
          "type": "tuple[]"
        }
      ],
      "name": "batchMint",
      "outputs": [
        {
          "internalType": "uint256[]",
          "name": "",
          "type": "uint256[]"
        }
      ],
      "stateMutability": "nonpayable",
      "type": "function"
    },
    {
      "inputs": [
        {
          "internalType": "uint256",
          "name": "",
          "type": "uint256"
        },
        {
          "internalType": "uint256",
          "name": "",
          "type": "uint256"
        }
      ],
      "name": "fees",
      "outputs": [
        {
          "internalType": "address payable",
          "name": "recipient",
          "type": "address"
        },
        {
          "internalType": "uint256",
          "name": "value",
          "type": "uint256"
        }
      ],
      "stateMutability": "view",
      "type": "function"
    },
    {
      "inputs": [
        {
          "internalType": "uint256",
          "name": "tokenId",
          "type": "uint256"
        }
      ],
      "name": "getApproved",
      "outputs": [
        {
          "internalType": "address",
          "name": "",
          "type": "address"
        }
      ],
      "stateMutability": "view",
      "type": "function"
    },
    {
      "inputs": [
        {
          "internalType": "uint256",
          "name": "id",
          "type": "uint256"
        }
      ],
      "name": "getFeeBps",
      "outputs": [
        {
          "internalType": "uint256[]",
          "name": "",
          "type": "uint256[]"
        }
      ],
      "stateMutability": "view",
      "type": "function"
    },
    {
      "inputs": [
        {
          "internalType": "uint256",
          "name": "id",
          "type": "uint256"
        }
      ],
      "name": "getFeeRecipients",
      "outputs": [
        {
          "internalType": "address payable[]",
          "name": "",
          "type": "address[]"
        }
      ],
      "stateMutability": "view",
      "type": "function"
    },
    {
      "inputs": [
        {
          "internalType": "address",
          "name": "owner",
          "type": "address"
        },
        {
          "internalType": "address",
          "name": "operator",
          "type": "address"
        }
      ],
      "name": "isApprovedForAll",
      "outputs": [
        {
          "internalType": "bool",
          "name": "",
          "type": "bool"
        }
      ],
      "stateMutability": "view",
      "type": "function"
    },
    {
      "inputs": [
        {
          "internalType": "address",
          "name": "receiver",
          "type": "address"
        },
        {
          "internalType": "string",
          "name": "tokenURI",
          "type": "string"
        },
        {
          "components": [
            {
              "internalType": "address payable",
              "name": "recipient",
              "type": "address"
            },
            {
              "internalType": "uint256",
              "name": "value",
              "type": "uint256"
            }
          ],
          "internalType": "struct HasSecondarySaleFees.Fee[]",
          "name": "fees",
          "type": "tuple[]"
        }
      ],
      "name": "mint",
      "outputs": [
        {
          "internalType": "uint256",
          "name": "",
          "type": "uint256"
        }
      ],
      "stateMutability": "nonpayable",
      "type": "function"
    },
    {
      "inputs": [],
      "name": "name",
      "outputs": [
        {
          "internalType": "string",
          "name": "",
          "type": "string"
        }
      ],
      "stateMutability": "view",
      "type": "function"
    },
    {
      "inputs": [
        {
          "internalType": "address",
          "name": "ownerAddress",
          "type": "address"
        }
      ],
      "name": "ownedTokens",
      "outputs": [
        {
          "internalType": "uint256[]",
          "name": "",
          "type": "uint256[]"
        }
      ],
      "stateMutability": "view",
      "type": "function"
    },
    {
      "inputs": [],
      "name": "owner",
      "outputs": [
        {
          "internalType": "address",
          "name": "",
          "type": "address"
        }
      ],
      "stateMutability": "view",
      "type": "function"
    },
    {
      "inputs": [
        {
          "internalType": "uint256",
          "name": "tokenId",
          "type": "uint256"
        }
      ],
      "name": "ownerOf",
      "outputs": [
        {
          "internalType": "address",
          "name": "",
          "type": "address"
        }
      ],
      "stateMutability": "view",
      "type": "function"
    },
    {
      "inputs": [],
      "name": "renounceOwnership",
      "outputs": [],
      "stateMutability": "nonpayable",
      "type": "function"
    },
    {
      "inputs": [
        {
          "internalType": "address",
          "name": "from",
          "type": "address"
        },
        {
          "internalType": "address",
          "name": "to",
          "type": "address"
        },
        {
          "internalType": "uint256",
          "name": "tokenId",
          "type": "uint256"
        }
      ],
      "name": "safeTransferFrom",
      "outputs": [],
      "stateMutability": "nonpayable",
      "type": "function"
    },
    {
      "inputs": [
        {
          "internalType": "address",
          "name": "from",
          "type": "address"
        },
        {
          "internalType": "address",
          "name": "to",
          "type": "address"
        },
        {
          "internalType": "uint256",
          "name": "tokenId",
          "type": "uint256"
        },
        {
          "internalType": "bytes",
          "name": "_data",
          "type": "bytes"
        }
      ],
      "name": "safeTransferFrom",
      "outputs": [],
      "stateMutability": "nonpayable",
      "type": "function"
    },
    {
      "inputs": [
        {
          "internalType": "address",
          "name": "operator",
          "type": "address"
        },
        {
          "internalType": "bool",
          "name": "approved",
          "type": "bool"
        }
      ],
      "name": "setApprovalForAll",
      "outputs": [],
      "stateMutability": "nonpayable",
      "type": "function"
    },
    {
      "inputs": [
        {
          "internalType": "bytes4",
          "name": "interfaceId",
          "type": "bytes4"
        }
      ],
      "name": "supportsInterface",
      "outputs": [
        {
          "internalType": "bool",
          "name": "",
          "type": "bool"
        }
      ],
      "stateMutability": "view",
      "type": "function"
    },
    {
      "inputs": [],
      "name": "symbol",
      "outputs": [
        {
          "internalType": "string",
          "name": "",
          "type": "string"
        }
      ],
      "stateMutability": "view",
      "type": "function"
    },
    {
      "inputs": [
        {
          "internalType": "uint256",
          "name": "index",
          "type": "uint256"
        }
      ],
      "name": "tokenByIndex",
      "outputs": [
        {
          "internalType": "uint256",
          "name": "",
          "type": "uint256"
        }
      ],
      "stateMutability": "view",
      "type": "function"
    },
    {
      "inputs": [
        {
          "internalType": "address",
          "name": "owner",
          "type": "address"
        },
        {
          "internalType": "uint256",
          "name": "index",
          "type": "uint256"
        }
      ],
      "name": "tokenOfOwnerByIndex",
      "outputs": [
        {
          "internalType": "uint256",
          "name": "",
          "type": "uint256"
        }
      ],
      "stateMutability": "view",
      "type": "function"
    },
    {
      "inputs": [
        {
          "internalType": "uint256",
          "name": "tokenId",
          "type": "uint256"
        }
      ],
      "name": "tokenURI",
      "outputs": [
        {
          "internalType": "string",
          "name": "",
          "type": "string"
        }
      ],
      "stateMutability": "view",
      "type": "function"
    },
    {
      "inputs": [],
      "name": "totalSupply",
      "outputs": [
        {
          "internalType": "uint256",
          "name": "",
          "type": "uint256"
        }
      ],
      "stateMutability": "view",
      "type": "function"
    },
    {
      "inputs": [
        {
          "internalType": "address",
          "name": "from",
          "type": "address"
        },
        {
          "internalType": "address",
          "name": "to",
          "type": "address"
        },
        {
          "internalType": "uint256",
          "name": "tokenId",
          "type": "uint256"
        }
      ],
      "name": "transferFrom",
      "outputs": [],
      "stateMutability": "nonpayable",
      "type": "function"
    },
    {
      "inputs": [
        {
          "internalType": "address",
          "name": "newOwner",
          "type": "address"
        }
      ],
      "name": "transferOwnership",
      "outputs": [],
      "stateMutability": "nonpayable",
      "type": "function"
    },
    {
      "inputs": [
        {
          "internalType": "uint256",
          "name": "_tokenId",
          "type": "uint256"
        },
        {
          "internalType": "string",
          "name": "_tokenURI",
          "type": "string"
        }
      ],
      "name": "updateTokenURI",
      "outputs": [
        {
          "internalType": "string",
          "name": "",
          "type": "string"
        }
      ],
      "stateMutability": "nonpayable",
      "type": "function"
    }
  ],
  "transactionHash": "0x6803d1acc7b541d6b413f3d21e631b4fb62d5efa0b078110255b21fb717d50b7",
  "args": [
    "Non Fungible Universe",
    "NFU 2"
  ],
  "solcInputHash": "e1449da688b8f00afe362de6f1b985e0",
  "bytecode": "0x60806040523480156200001157600080fd5b5060405162002e0338038062002e038339810160408190526200003491620002bf565b8181620000486301ffc9a760e01b62000121565b81516200005d90600690602085019062000180565b5080516200007390600790602084019062000180565b50620000866380ac58cd60e01b62000121565b62000098635b5e139f60e01b62000121565b620000aa63780e9d6360e01b62000121565b5060009050620000b96200017c565b600a80546001600160a01b0319166001600160a01b038316908117909155604051919250906000907f8be0079c531659141344cd1fd0a4f28419497f9722a3daafe3b4186f6b6457e0908290a35062000119632dde656160e21b62000121565b50506200035d565b6001600160e01b03198082161415620001575760405162461bcd60e51b81526004016200014e9062000326565b60405180910390fd5b6001600160e01b0319166000908152602081905260409020805460ff19166001179055565b3390565b828054600181600116156101000203166002900490600052602060002090601f016020900481019282601f10620001c357805160ff1916838001178555620001f3565b82800160010185558215620001f3579182015b82811115620001f3578251825591602001919060010190620001d6565b506200020192915062000205565b5090565b5b8082111562000201576000815560010162000206565b600082601f8301126200022d578081fd5b81516001600160401b03808211156200024257fe5b6040516020601f8401601f19168201810183811183821017156200026257fe5b806040525081945083825286818588010111156200027f57600080fd5b600092505b83831015620002a3578583018101518284018201529182019162000284565b83831115620002b55760008185840101525b5050505092915050565b60008060408385031215620002d2578182fd5b82516001600160401b0380821115620002e9578384fd5b620002f7868387016200021c565b935060208501519150808211156200030d578283fd5b506200031c858286016200021c565b9150509250929050565b6020808252601c908201527f4552433136353a20696e76616c696420696e7465726661636520696400000000604082015260600190565b612a96806200036d6000396000f3fe608060405234801561001057600080fd5b50600436106101a95760003560e01c80636352211e116100f9578063a22cb46511610097578063b9c4d9fb11610071578063b9c4d9fb1461037b578063c87b56dd1461039b578063e985e9c5146103ae578063f2fde38b146103c1576101a9565b8063a22cb46514610342578063b12ab40f14610355578063b88d4fde14610368576101a9565b8063715018a6116100d3578063715018a6146103175780637a5d8d171461031f5780638da5cb5b1461033257806395d89b411461033a576101a9565b80636352211e146102e95780636c0360eb146102fc57806370a0823114610304576101a9565b806318e97fd1116101665780632f745c59116101405780632f745c591461028f57806342842e0e146102a25780634f6ccce7146102b55780636308f1cd146102c8576101a9565b806318e97fd11461025657806323b872dd146102695780632dbc1f3d1461027c576101a9565b806301ffc9a7146101ae57806306fdde03146101d7578063081812fc146101ec578063095ea7b31461020c5780630ebd4c7f1461022157806318160ddd14610241575b600080fd5b6101c16101bc366004612035565b6103d4565b6040516101ce9190612265565b60405180910390f35b6101df6103f7565b6040516101ce9190612270565b6101ff6101fa36600461206d565b61048d565b6040516101ce919061219b565b61021f61021a36600461200a565b6104d9565b005b61023461022f36600461206d565b610571565b6040516101ce9190612252565b61024961067a565b6040516101ce91906128a9565b6101df610264366004612085565b61068b565b61021f610277366004611e25565b6106df565b61023461028a366004611ece565b610717565b61024961029d36600461200a565b610858565b61021f6102b0366004611e25565b610881565b6102496102c336600461206d565b61089c565b6102db6102d63660046120c9565b6108aa565b6040516101ce9291906121ec565b6101ff6102f736600461206d565b6108ed565b6101df610915565b610249610312366004611dd1565b610976565b61021f6109bf565b61024961032d366004611f98565b610a48565b6101ff610b03565b6101df610b12565b61021f610350366004611f67565b610b73565b610234610363366004611dd1565b610c41565b61021f610376366004611e65565b610ccf565b61038e61038936600461206d565b610d0e565b6040516101ce9190612205565b6101df6103a936600461206d565b610e1c565b6101c16103bc366004611ded565b610f62565b61021f6103cf366004611dd1565b610f90565b6001600160e01b0319811660009081526020819052604090205460ff165b919050565b60068054604080516020601f60026000196101006001881615020190951694909404938401819004810282018101909252828152606093909290918301828280156104835780601f1061045857610100808354040283529160200191610483565b820191906000526020600020905b81548152906001019060200180831161046657829003601f168201915b5050505050905090565b600061049882611051565b6104bd5760405162461bcd60e51b81526004016104b490612644565b60405180910390fd5b506000908152600460205260409020546001600160a01b031690565b60006104e4826108ed565b9050806001600160a01b0316836001600160a01b031614156105185760405162461bcd60e51b81526004016104b4906127a9565b806001600160a01b031661052a61105e565b6001600160a01b031614806105465750610546816103bc61105e565b6105625760405162461bcd60e51b81526004016104b490612526565b61056c8383611062565b505050565b6000818152600b602090815260408083208054825181850281018501909352808352606094859484015b828210156105e3576000848152602090819020604080518082019091526002850290910180546001600160a01b0316825260019081015482840152908352909201910161059b565b505050509050606081516001600160401b038111801561060257600080fd5b5060405190808252806020026020018201604052801561062c578160200160208202803683370190505b50905060005b82518110156106725782818151811061064757fe5b60200260200101516020015182828151811061065f57fe5b6020908102919091010152600101610632565b509392505050565b600061068660026110d0565b905090565b606061069561105e565b6001600160a01b03166106a6610b03565b6001600160a01b0316146106cc5760405162461bcd60e51b81526004016104b4906126dc565b6106d683836110db565b50805b92915050565b6106f06106ea61105e565b8261111f565b61070c5760405162461bcd60e51b81526004016104b4906127ea565b61056c83838361119c565b606061072161105e565b6001600160a01b0316610732610b03565b6001600160a01b0316146107585760405162461bcd60e51b81526004016104b4906126dc565b60288311156107795760405162461bcd60e51b81526004016104b4906122fc565b6060836001600160401b038111801561079157600080fd5b506040519080825280602002602001820160405280156107bb578160200160208202803683370190505b50905060005b8481101561084c576000610829888888858181106107db57fe5b90506020028101906107ed9190612944565b8080601f0160208091040260200160405190810160405280939291908181526020018383808284376000920191909152508a9250610a48915050565b90508083838151811061083857fe5b6020908102919091010152506001016107c1565b5090505b949350505050565b6001600160a01b038216600090815260016020526040812061087a90836112aa565b9392505050565b61056c83838360405180602001604052806000815250610ccf565b6000806106726002846112b6565b600b60205281600052604060002081815481106108c357fe5b6000918252602090912060029091020180546001909101546001600160a01b039091169250905082565b60006106d982604051806060016040528060298152602001612a3860299139600291906112d4565b60098054604080516020601f60026000196101006001881615020190951694909404938401819004810282018101909252828152606093909290918301828280156104835780601f1061045857610100808354040283529160200191610483565b60006001600160a01b03821661099e5760405162461bcd60e51b81526004016104b490612583565b6001600160a01b03821660009081526001602052604090206106d9906110d0565b6109c761105e565b6001600160a01b03166109d8610b03565b6001600160a01b0316146109fe5760405162461bcd60e51b81526004016104b4906126dc565b600a546040516000916001600160a01b0316907f8be0079c531659141344cd1fd0a4f28419497f9722a3daafe3b4186f6b6457e0908390a3600a80546001600160a01b0319169055565b6000610a5261105e565b6001600160a01b0316610a63610b03565b6001600160a01b031614610a895760405162461bcd60e51b81526004016104b4906126dc565b610a93600c6112e1565b6000610a9f600c6112ea565b9050610aab85826112ee565b610ab581856110db565b610abf81846113b2565b507fcfa31e191e6bc089d7846b813adb09b980d89e12904b78c03dc9e09f51a611d7818542604051610af39392919061291b565b60405180910390a1509392505050565b600a546001600160a01b031690565b60078054604080516020601f60026000196101006001881615020190951694909404938401819004810282018101909252828152606093909290918301828280156104835780601f1061045857610100808354040283529160200191610483565b610b7b61105e565b6001600160a01b0316826001600160a01b03161415610bac5760405162461bcd60e51b81526004016104b4906124a3565b8060056000610bb961105e565b6001600160a01b03908116825260208083019390935260409182016000908120918716808252919093529120805460ff191692151592909217909155610bfd61105e565b6001600160a01b03167f17307eab39ab6107e8899845ad3d59bd9653f200f220920489ca2b5937696c3183604051610c359190612265565b60405180910390a35050565b60606000610c4e83610976565b90506060816001600160401b0381118015610c6857600080fd5b50604051908082528060200260200182016040528015610c92578160200160208202803683370190505b50905060005b82811015610672576000610cac8683610858565b905080838381518110610cbb57fe5b602090810291909101015250600101610c98565b610ce0610cda61105e565b8361111f565b610cfc5760405162461bcd60e51b81526004016104b4906127ea565b610d0884848484611634565b50505050565b6000818152600b602090815260408083208054825181850281018501909352808352606094859484015b82821015610d80576000848152602090819020604080518082019091526002850290910180546001600160a01b03168252600190810154828401529083529092019101610d38565b505050509050606081516001600160401b0381118015610d9f57600080fd5b50604051908082528060200260200182016040528015610dc9578160200160208202803683370190505b50905060005b825181101561067257828181518110610de457fe5b602002602001015160000151828281518110610dfc57fe5b6001600160a01b0390921660209283029190910190910152600101610dcf565b6060610e2782611051565b610e435760405162461bcd60e51b81526004016104b49061275a565b60008281526008602090815260409182902080548351601f6002600019610100600186161502019093169290920491820184900484028101840190945280845260609392830182828015610ed85780601f10610ead57610100808354040283529160200191610ed8565b820191906000526020600020905b815481529060010190602001808311610ebb57829003601f168201915b505050505090506060610ee9610915565b9050805160001415610efd575090506103f2565b815115610f2f578082604051602001610f1792919061216c565b604051602081830303815290604052925050506103f2565b80610f3985611667565b604051602001610f4a92919061216c565b60405160208183030381529060405292505050919050565b6001600160a01b03918216600090815260056020908152604080832093909416825291909152205460ff1690565b610f9861105e565b6001600160a01b0316610fa9610b03565b6001600160a01b031614610fcf5760405162461bcd60e51b81526004016104b4906126dc565b6001600160a01b038116610ff55760405162461bcd60e51b81526004016104b4906123ab565b600a546040516001600160a01b038084169216907f8be0079c531659141344cd1fd0a4f28419497f9722a3daafe3b4186f6b6457e090600090a3600a80546001600160a01b0319166001600160a01b0392909216919091179055565b60006106d9600283611741565b3390565b600081815260046020526040902080546001600160a01b0319166001600160a01b0384169081179091558190611097826108ed565b6001600160a01b03167f8c5be1e5ebec7d5bd14f71427d1e84f3dd0314c0f7b2291e5b200ac8c7c3b92560405160405180910390a45050565b60006106d9826112ea565b6110e482611051565b6111005760405162461bcd60e51b81526004016104b490612690565b6000828152600860209081526040909120825161056c92840190611c02565b600061112a82611051565b6111465760405162461bcd60e51b81526004016104b4906124da565b6000611151836108ed565b9050806001600160a01b0316846001600160a01b0316148061118c5750836001600160a01b03166111818461048d565b6001600160a01b0316145b8061085057506108508185610f62565b826001600160a01b03166111af826108ed565b6001600160a01b0316146111d55760405162461bcd60e51b81526004016104b490612711565b6001600160a01b0382166111fb5760405162461bcd60e51b81526004016104b49061245f565b61120683838361056c565b611211600082611062565b6001600160a01b0383166000908152600160205260409020611233908261174d565b506001600160a01b03821660009081526001602052604090206112569082611759565b5061126360028284611765565b5080826001600160a01b0316846001600160a01b03167fddf252ad1be2c89b69c2b068fc378daa952ba7f163c4a11628f55a4df523b3ef60405160405180910390a4505050565b600061087a838361177b565b60008080806112c586866117c0565b909450925050505b9250929050565b600061085084848461181c565b80546001019055565b5490565b6001600160a01b0382166113145760405162461bcd60e51b81526004016104b49061260f565b61131d81611051565b1561133a5760405162461bcd60e51b81526004016104b490612428565b6113466000838361056c565b6001600160a01b03821660009081526001602052604090206113689082611759565b5061137560028284611765565b5060405181906001600160a01b038416906000907fddf252ad1be2c89b69c2b068fc378daa952ba7f163c4a11628f55a4df523b3ef908290a45050565b6000606082516001600160401b03811180156113cd57600080fd5b506040519080825280602002602001820160405280156113f7578160200160208202803683370190505b509050606083516001600160401b038111801561141357600080fd5b5060405190808252806020026020018201604052801561143d578160200160208202803683370190505b50905060005b84518110156115e85760006001600160a01b031685828151811061146357fe5b6020026020010151600001516001600160a01b031614156114965760405162461bcd60e51b81526004016104b490612872565b8481815181106114a257fe5b602002602001015160200151600014156114ce5760405162461bcd60e51b81526004016104b4906122c5565b6127108582815181106114dd57fe5b602002602001015160200151106115065760405162461bcd60e51b81526004016104b4906123f1565b6000868152600b60205260409020855186908390811061152257fe5b602090810291909101810151825460018082018555600094855293839020825160029092020180546001600160a01b0319166001600160a01b03909216919091178155910151910155845185908290811061157957fe5b60200260200101516000015183828151811061159157fe5b60200260200101906001600160a01b031690816001600160a01b0316815250508481815181106115bd57fe5b6020026020010151602001518282815181106115d557fe5b6020908102919091010152600101611443565b5083511561162c577f99aba1d63749cfd5ad1afda7c4663840924d54eb5f005bbbeadedc6ec13674b2858383604051611623939291906128b2565b60405180910390a15b505092915050565b61163f84848461119c565b61164b8484848461187b565b610d085760405162461bcd60e51b81526004016104b490612359565b60608161168c57506040805180820190915260018152600360fc1b60208201526103f2565b8160005b81156116a457600101600a82049150611690565b6060816001600160401b03811180156116bc57600080fd5b506040519080825280601f01601f1916602001820160405280156116e7576020820181803683370190505b50859350905060001982015b831561173857600a840660300160f81b8282806001900393508151811061171657fe5b60200101906001600160f81b031916908160001a905350600a840493506116f3565b50949350505050565b600061087a838361195a565b600061087a8383611972565b600061087a8383611a38565b600061085084846001600160a01b038516611a82565b8154600090821061179e5760405162461bcd60e51b81526004016104b490612283565b8260000182815481106117ad57fe5b9060005260206000200154905092915050565b8154600090819083106117e55760405162461bcd60e51b81526004016104b4906125cd565b60008460000184815481106117f657fe5b906000526020600020906002020190508060000154816001015492509250509250929050565b6000828152600184016020526040812054828161184c5760405162461bcd60e51b81526004016104b49190612270565b5084600001600182038154811061185f57fe5b9060005260206000209060020201600101549150509392505050565b600061188f846001600160a01b0316611b19565b61189b57506001610850565b6060611923630a85bd0160e11b6118b061105e565b8887876040516024016118c694939291906121af565b604051602081830303815290604052906001600160e01b0319166020820180516001600160e01b038381831617835250505050604051806060016040528060328152602001612a06603291396001600160a01b0388169190611b1f565b905060008180602001905181019061193b9190612051565b6001600160e01b031916630a85bd0160e11b1492505050949350505050565b60009081526001919091016020526040902054151590565b60008181526001830160205260408120548015611a2e57835460001980830191908101906000908790839081106119a557fe5b90600052602060002001549050808760000184815481106119c257fe5b6000918252602080832090910192909255828152600189810190925260409020908401905586548790806119f257fe5b600190038181906000526020600020016000905590558660010160008781526020019081526020016000206000905560019450505050506106d9565b60009150506106d9565b6000611a44838361195a565b611a7a575081546001818101845560008481526020808220909301849055845484825282860190935260409020919091556106d9565b5060006106d9565b600082815260018401602052604081205480611ae757505060408051808201825283815260208082018481528654600181810189556000898152848120955160029093029095019182559151908201558654868452818801909252929091205561087a565b82856000016001830381548110611afa57fe5b906000526020600020906002020160010181905550600091505061087a565b3b151590565b6060610850848460008585611b3385611b19565b611b4f5760405162461bcd60e51b81526004016104b49061283b565b60006060866001600160a01b03168587604051611b6c9190612150565b60006040518083038185875af1925050503d8060008114611ba9576040519150601f19603f3d011682016040523d82523d6000602084013e611bae565b606091505b5091509150611bbe828286611bc9565b979650505050505050565b60608315611bd857508161087a565b825115611be85782518084602001fd5b8160405162461bcd60e51b81526004016104b49190612270565b828054600181600116156101000203166002900490600052602060002090601f016020900481019282601f10611c4357805160ff1916838001178555611c70565b82800160010185558215611c70579182015b82811115611c70578251825591602001919060010190611c55565b50611c7c929150611c80565b5090565b5b80821115611c7c5760008155600101611c81565b600082601f830112611ca5578081fd5b81356001600160401b03811115611cb857fe5b6020611cc78182840201612988565b8281529250808301848201604080850287018401881015611ce757600080fd5b60005b85811015611d0e57611cfc8984611d80565b84529284019291810191600101611cea565b50505050505092915050565b600082601f830112611d2a578081fd5b81356001600160401b03811115611d3d57fe5b611d50601f8201601f1916602001612988565b9150808252836020828501011115611d6757600080fd5b8060208401602084013760009082016020015292915050565b600060408284031215611d91578081fd5b604051604081018181106001600160401b0382111715611dad57fe5b6040529050808235611dbe816129d7565b8152602092830135920191909152919050565b600060208284031215611de2578081fd5b813561087a816129d7565b60008060408385031215611dff578081fd5b8235611e0a816129d7565b91506020830135611e1a816129d7565b809150509250929050565b600080600060608486031215611e39578081fd5b8335611e44816129d7565b92506020840135611e54816129d7565b929592945050506040919091013590565b60008060008060808587031215611e7a578081fd5b8435611e85816129d7565b93506020850135611e95816129d7565b92506040850135915060608501356001600160401b03811115611eb6578182fd5b611ec287828801611d1a565b91505092959194509250565b60008060008060608587031215611ee3578384fd5b8435611eee816129d7565b935060208501356001600160401b0380821115611f09578485fd5b818701915087601f830112611f1c578485fd5b813581811115611f2a578586fd5b8860208083028501011115611f3d578586fd5b602083019550809450506040870135915080821115611f5a578283fd5b50611ec287828801611c95565b60008060408385031215611f79578182fd5b8235611f84816129d7565b915060208301358015158114611e1a578182fd5b600080600060608486031215611fac578283fd5b8335611fb7816129d7565b925060208401356001600160401b0380821115611fd2578384fd5b611fde87838801611d1a565b93506040860135915080821115611ff3578283fd5b5061200086828701611c95565b9150509250925092565b6000806040838503121561201c578182fd5b8235612027816129d7565b946020939093013593505050565b600060208284031215612046578081fd5b813561087a816129ef565b600060208284031215612062578081fd5b815161087a816129ef565b60006020828403121561207e578081fd5b5035919050565b60008060408385031215612097578182fd5b8235915060208301356001600160401b038111156120b3578182fd5b6120bf85828601611d1a565b9150509250929050565b600080604083850312156120db578182fd5b50508035926020909101359150565b6000815180845260208085019450808401835b83811015612119578151875295820195908201906001016120fd565b509495945050505050565b6000815180845261213c8160208601602086016129ab565b601f01601f19169290920160200192915050565b600082516121628184602087016129ab565b9190910192915050565b6000835161217e8184602088016129ab565b8351908301906121928183602088016129ab565b01949350505050565b6001600160a01b0391909116815260200190565b6001600160a01b03858116825284166020820152604081018390526080606082018190526000906121e290830184612124565b9695505050505050565b6001600160a01b03929092168252602082015260400190565b6020808252825182820181905260009190848201906040850190845b818110156122465783516001600160a01b031683529284019291840191600101612221565b50909695505050505050565b60006020825261087a60208301846120ea565b901515815260200190565b60006020825261087a6020830184612124565b60208082526022908201527f456e756d657261626c655365743a20696e646578206f7574206f6620626f756e604082015261647360f01b606082015260800190565b6020808252601c908201527f4665652076616c75652073686f756c6420626520706f73697469766500000000604082015260600190565b60208082526037908201527f43616e6e6f74206d696e74206d6f7265207468616e203430204552433732312060408201527f746f6b656e7320696e20612073696e676c652063616c6c000000000000000000606082015260800190565b60208082526032908201527f4552433732313a207472616e7366657220746f206e6f6e20455243373231526560408201527131b2b4bb32b91034b6b83632b6b2b73a32b960711b606082015260800190565b60208082526026908201527f4f776e61626c653a206e6577206f776e657220697320746865207a65726f206160408201526564647265737360d01b606082015260800190565b6020808252601c908201527f4665652073686f756c64206265206c657373207468616e203130302500000000604082015260600190565b6020808252601c908201527f4552433732313a20746f6b656e20616c7265616479206d696e74656400000000604082015260600190565b60208082526024908201527f4552433732313a207472616e7366657220746f20746865207a65726f206164646040820152637265737360e01b606082015260800190565b60208082526019908201527f4552433732313a20617070726f766520746f2063616c6c657200000000000000604082015260600190565b6020808252602c908201527f4552433732313a206f70657261746f7220717565727920666f72206e6f6e657860408201526b34b9ba32b73a103a37b5b2b760a11b606082015260800190565b60208082526038908201527f4552433732313a20617070726f76652063616c6c6572206973206e6f74206f7760408201527f6e6572206e6f7220617070726f76656420666f7220616c6c0000000000000000606082015260800190565b6020808252602a908201527f4552433732313a2062616c616e636520717565727920666f7220746865207a65604082015269726f206164647265737360b01b606082015260800190565b60208082526022908201527f456e756d657261626c654d61703a20696e646578206f7574206f6620626f756e604082015261647360f01b606082015260800190565b6020808252818101527f4552433732313a206d696e7420746f20746865207a65726f2061646472657373604082015260600190565b6020808252602c908201527f4552433732313a20617070726f76656420717565727920666f72206e6f6e657860408201526b34b9ba32b73a103a37b5b2b760a11b606082015260800190565b6020808252602c908201527f4552433732314d657461646174613a2055524920736574206f66206e6f6e657860408201526b34b9ba32b73a103a37b5b2b760a11b606082015260800190565b6020808252818101527f4f776e61626c653a2063616c6c6572206973206e6f7420746865206f776e6572604082015260600190565b60208082526029908201527f4552433732313a207472616e73666572206f6620746f6b656e2074686174206960408201526839903737ba1037bbb760b91b606082015260800190565b6020808252602f908201527f4552433732314d657461646174613a2055524920717565727920666f72206e6f60408201526e3732bc34b9ba32b73a103a37b5b2b760891b606082015260800190565b60208082526021908201527f4552433732313a20617070726f76616c20746f2063757272656e74206f776e656040820152603960f91b606082015260800190565b60208082526031908201527f4552433732313a207472616e736665722063616c6c6572206973206e6f74206f6040820152701ddb995c881b9bdc88185c1c1c9bdd9959607a1b606082015260800190565b6020808252601d908201527f416464726573733a2063616c6c20746f206e6f6e2d636f6e7472616374000000604082015260600190565b6020808252601b908201527f526563697069656e742073686f756c642062652070726573656e740000000000604082015260600190565b90815260200190565b60006060820185835260206060818501528186518084526080860191508288019350845b818110156128fb5784516001600160a01b0316835293830193918301916001016128d6565b5050848103604086015261290f81876120ea565b98975050505050505050565b6000848252606060208301526129346060830185612124565b9050826040830152949350505050565b6000808335601e1984360301811261295a578283fd5b8301803591506001600160401b03821115612973578283fd5b6020019150368190038213156112cd57600080fd5b6040518181016001600160401b03811182821017156129a357fe5b604052919050565b60005b838110156129c65781810151838201526020016129ae565b83811115610d085750506000910152565b6001600160a01b03811681146129ec57600080fd5b50565b6001600160e01b0319811681146129ec57600080fdfe4552433732313a207472616e7366657220746f206e6f6e20455243373231526563656976657220696d706c656d656e7465724552433732313a206f776e657220717565727920666f72206e6f6e6578697374656e7420746f6b656ea264697066735822122025a7f39d80070ddba44a0bf4b2a163bcbcac9da2ca1a2a2d9273208a797cb85764736f6c63430007030033",
  "devdoc": {
    "kind": "dev",
    "methods": {
      "approve(address,uint256)": {
        "details": "See {IERC721-approve}."
      },
      "balanceOf(address)": {
        "details": "See {IERC721-balanceOf}."
      },
      "baseURI()": {
        "details": "Returns the base URI set via {_setBaseURI}. This will be automatically added as a prefix in {tokenURI} to each token's URI, or to the token ID if no specific URI is set for that token ID."
      },
      "getApproved(uint256)": {
        "details": "See {IERC721-getApproved}."
      },
      "isApprovedForAll(address,address)": {
        "details": "See {IERC721-isApprovedForAll}."
      },
      "name()": {
        "details": "See {IERC721Metadata-name}."
      },
      "owner()": {
        "details": "Returns the address of the current owner."
      },
      "ownerOf(uint256)": {
        "details": "See {IERC721-ownerOf}."
      },
      "renounceOwnership()": {
        "details": "Leaves the contract without owner. It will not be possible to call `onlyOwner` functions anymore. Can only be called by the current owner. NOTE: Renouncing ownership will leave the contract without an owner, thereby removing any functionality that is only available to the owner."
      },
      "safeTransferFrom(address,address,uint256)": {
        "details": "See {IERC721-safeTransferFrom}."
      },
      "safeTransferFrom(address,address,uint256,bytes)": {
        "details": "See {IERC721-safeTransferFrom}."
      },
      "setApprovalForAll(address,bool)": {
        "details": "See {IERC721-setApprovalForAll}."
      },
      "supportsInterface(bytes4)": {
        "details": "See {IERC165-supportsInterface}. Time complexity O(1), guaranteed to always use less than 30 000 gas."
      },
      "symbol()": {
        "details": "See {IERC721Metadata-symbol}."
      },
      "tokenByIndex(uint256)": {
        "details": "See {IERC721Enumerable-tokenByIndex}."
      },
      "tokenOfOwnerByIndex(address,uint256)": {
        "details": "See {IERC721Enumerable-tokenOfOwnerByIndex}."
      },
      "tokenURI(uint256)": {
        "details": "See {IERC721Metadata-tokenURI}."
      },
      "totalSupply()": {
        "details": "See {IERC721Enumerable-totalSupply}."
      },
      "transferFrom(address,address,uint256)": {
        "details": "See {IERC721-transferFrom}."
      },
      "transferOwnership(address)": {
        "details": "Transfers ownership of the contract to a new account (`newOwner`). Can only be called by the current owner."
      }
    },
    "version": 1
  },
  "userdoc": {
    "kind": "user",
    "methods": {},
    "version": 1
  },
  "storageLayout": {
    "storage": [
      {
        "astId": 123,
        "contract": "contracts/UniverseERC721.sol:UniverseERC721",
        "label": "_supportedInterfaces",
        "offset": 0,
        "slot": "0",
        "type": "t_mapping(t_bytes4,t_bool)"
      },
      {
        "astId": 1160,
        "contract": "contracts/UniverseERC721.sol:UniverseERC721",
        "label": "_holderTokens",
        "offset": 0,
        "slot": "1",
        "type": "t_mapping(t_address,t_struct(UintSet)3603_storage)"
      },
      {
        "astId": 1162,
        "contract": "contracts/UniverseERC721.sol:UniverseERC721",
        "label": "_tokenOwners",
        "offset": 0,
        "slot": "2",
        "type": "t_struct(UintToAddressMap)2980_storage"
      },
      {
        "astId": 1166,
        "contract": "contracts/UniverseERC721.sol:UniverseERC721",
        "label": "_tokenApprovals",
        "offset": 0,
        "slot": "4",
        "type": "t_mapping(t_uint256,t_address)"
      },
      {
        "astId": 1172,
        "contract": "contracts/UniverseERC721.sol:UniverseERC721",
        "label": "_operatorApprovals",
        "offset": 0,
        "slot": "5",
        "type": "t_mapping(t_address,t_mapping(t_address,t_bool))"
      },
      {
        "astId": 1174,
        "contract": "contracts/UniverseERC721.sol:UniverseERC721",
        "label": "_name",
        "offset": 0,
        "slot": "6",
        "type": "t_string_storage"
      },
      {
        "astId": 1176,
        "contract": "contracts/UniverseERC721.sol:UniverseERC721",
        "label": "_symbol",
        "offset": 0,
        "slot": "7",
        "type": "t_string_storage"
      },
      {
        "astId": 1180,
        "contract": "contracts/UniverseERC721.sol:UniverseERC721",
        "label": "_tokenURIs",
        "offset": 0,
        "slot": "8",
        "type": "t_mapping(t_uint256,t_string_storage)"
      },
      {
        "astId": 1182,
        "contract": "contracts/UniverseERC721.sol:UniverseERC721",
        "label": "_baseURI",
        "offset": 0,
        "slot": "9",
        "type": "t_string_storage"
      },
      {
        "astId": 7,
        "contract": "contracts/UniverseERC721.sol:UniverseERC721",
        "label": "_owner",
        "offset": 0,
        "slot": "10",
        "type": "t_address"
      },
      {
        "astId": 6772,
        "contract": "contracts/UniverseERC721.sol:UniverseERC721",
        "label": "fees",
        "offset": 0,
        "slot": "11",
        "type": "t_mapping(t_uint256,t_array(t_struct(Fee)6767_storage)dyn_storage)"
      },
      {
        "astId": 7339,
        "contract": "contracts/UniverseERC721.sol:UniverseERC721",
        "label": "_tokenIds",
        "offset": 0,
        "slot": "12",
        "type": "t_struct(Counter)2606_storage"
      }
    ],
    "types": {
      "t_address": {
        "encoding": "inplace",
        "label": "address",
        "numberOfBytes": "20"
      },
      "t_address_payable": {
        "encoding": "inplace",
        "label": "address payable",
        "numberOfBytes": "20"
      },
      "t_array(t_bytes32)dyn_storage": {
        "base": "t_bytes32",
        "encoding": "dynamic_array",
        "label": "bytes32[]",
        "numberOfBytes": "32"
      },
      "t_array(t_struct(Fee)6767_storage)dyn_storage": {
        "base": "t_struct(Fee)6767_storage",
        "encoding": "dynamic_array",
        "label": "struct HasSecondarySaleFees.Fee[]",
        "numberOfBytes": "32"
      },
      "t_array(t_struct(MapEntry)2654_storage)dyn_storage": {
        "base": "t_struct(MapEntry)2654_storage",
        "encoding": "dynamic_array",
        "label": "struct EnumerableMap.MapEntry[]",
        "numberOfBytes": "32"
      },
      "t_bool": {
        "encoding": "inplace",
        "label": "bool",
        "numberOfBytes": "1"
      },
      "t_bytes32": {
        "encoding": "inplace",
        "label": "bytes32",
        "numberOfBytes": "32"
      },
      "t_bytes4": {
        "encoding": "inplace",
        "label": "bytes4",
        "numberOfBytes": "4"
      },
      "t_mapping(t_address,t_bool)": {
        "encoding": "mapping",
        "key": "t_address",
        "label": "mapping(address => bool)",
        "numberOfBytes": "32",
        "value": "t_bool"
      },
      "t_mapping(t_address,t_mapping(t_address,t_bool))": {
        "encoding": "mapping",
        "key": "t_address",
        "label": "mapping(address => mapping(address => bool))",
        "numberOfBytes": "32",
        "value": "t_mapping(t_address,t_bool)"
      },
      "t_mapping(t_address,t_struct(UintSet)3603_storage)": {
        "encoding": "mapping",
        "key": "t_address",
        "label": "mapping(address => struct EnumerableSet.UintSet)",
        "numberOfBytes": "32",
        "value": "t_struct(UintSet)3603_storage"
      },
      "t_mapping(t_bytes32,t_uint256)": {
        "encoding": "mapping",
        "key": "t_bytes32",
        "label": "mapping(bytes32 => uint256)",
        "numberOfBytes": "32",
        "value": "t_uint256"
      },
      "t_mapping(t_bytes4,t_bool)": {
        "encoding": "mapping",
        "key": "t_bytes4",
        "label": "mapping(bytes4 => bool)",
        "numberOfBytes": "32",
        "value": "t_bool"
      },
      "t_mapping(t_uint256,t_address)": {
        "encoding": "mapping",
        "key": "t_uint256",
        "label": "mapping(uint256 => address)",
        "numberOfBytes": "32",
        "value": "t_address"
      },
      "t_mapping(t_uint256,t_array(t_struct(Fee)6767_storage)dyn_storage)": {
        "encoding": "mapping",
        "key": "t_uint256",
        "label": "mapping(uint256 => struct HasSecondarySaleFees.Fee[])",
        "numberOfBytes": "32",
        "value": "t_array(t_struct(Fee)6767_storage)dyn_storage"
      },
      "t_mapping(t_uint256,t_string_storage)": {
        "encoding": "mapping",
        "key": "t_uint256",
        "label": "mapping(uint256 => string)",
        "numberOfBytes": "32",
        "value": "t_string_storage"
      },
      "t_string_storage": {
        "encoding": "bytes",
        "label": "string",
        "numberOfBytes": "32"
      },
      "t_struct(Counter)2606_storage": {
        "encoding": "inplace",
        "label": "struct Counters.Counter",
        "members": [
          {
            "astId": 2605,
            "contract": "contracts/UniverseERC721.sol:UniverseERC721",
            "label": "_value",
            "offset": 0,
            "slot": "0",
            "type": "t_uint256"
          }
        ],
        "numberOfBytes": "32"
      },
      "t_struct(Fee)6767_storage": {
        "encoding": "inplace",
        "label": "struct HasSecondarySaleFees.Fee",
        "members": [
          {
            "astId": 6764,
            "contract": "contracts/UniverseERC721.sol:UniverseERC721",
            "label": "recipient",
            "offset": 0,
            "slot": "0",
            "type": "t_address_payable"
          },
          {
            "astId": 6766,
            "contract": "contracts/UniverseERC721.sol:UniverseERC721",
            "label": "value",
            "offset": 0,
            "slot": "1",
            "type": "t_uint256"
          }
        ],
        "numberOfBytes": "64"
      },
      "t_struct(Map)2662_storage": {
        "encoding": "inplace",
        "label": "struct EnumerableMap.Map",
        "members": [
          {
            "astId": 2657,
            "contract": "contracts/UniverseERC721.sol:UniverseERC721",
            "label": "_entries",
            "offset": 0,
            "slot": "0",
            "type": "t_array(t_struct(MapEntry)2654_storage)dyn_storage"
          },
          {
            "astId": 2661,
            "contract": "contracts/UniverseERC721.sol:UniverseERC721",
            "label": "_indexes",
            "offset": 0,
            "slot": "1",
            "type": "t_mapping(t_bytes32,t_uint256)"
          }
        ],
        "numberOfBytes": "64"
      },
      "t_struct(MapEntry)2654_storage": {
        "encoding": "inplace",
        "label": "struct EnumerableMap.MapEntry",
        "members": [
          {
            "astId": 2651,
            "contract": "contracts/UniverseERC721.sol:UniverseERC721",
            "label": "_key",
            "offset": 0,
            "slot": "0",
            "type": "t_bytes32"
          },
          {
            "astId": 2653,
            "contract": "contracts/UniverseERC721.sol:UniverseERC721",
            "label": "_value",
            "offset": 0,
            "slot": "1",
            "type": "t_bytes32"
          }
        ],
        "numberOfBytes": "64"
      },
      "t_struct(Set)3217_storage": {
        "encoding": "inplace",
        "label": "struct EnumerableSet.Set",
        "members": [
          {
            "astId": 3212,
            "contract": "contracts/UniverseERC721.sol:UniverseERC721",
            "label": "_values",
            "offset": 0,
            "slot": "0",
            "type": "t_array(t_bytes32)dyn_storage"
          },
          {
            "astId": 3216,
            "contract": "contracts/UniverseERC721.sol:UniverseERC721",
            "label": "_indexes",
            "offset": 0,
            "slot": "1",
            "type": "t_mapping(t_bytes32,t_uint256)"
          }
        ],
        "numberOfBytes": "64"
      },
      "t_struct(UintSet)3603_storage": {
        "encoding": "inplace",
        "label": "struct EnumerableSet.UintSet",
        "members": [
          {
            "astId": 3602,
            "contract": "contracts/UniverseERC721.sol:UniverseERC721",
            "label": "_inner",
            "offset": 0,
            "slot": "0",
            "type": "t_struct(Set)3217_storage"
          }
        ],
        "numberOfBytes": "64"
      },
      "t_struct(UintToAddressMap)2980_storage": {
        "encoding": "inplace",
        "label": "struct EnumerableMap.UintToAddressMap",
        "members": [
          {
            "astId": 2979,
            "contract": "contracts/UniverseERC721.sol:UniverseERC721",
            "label": "_inner",
            "offset": 0,
            "slot": "0",
            "type": "t_struct(Map)2662_storage"
          }
        ],
        "numberOfBytes": "64"
      },
      "t_uint256": {
        "encoding": "inplace",
        "label": "uint256",
        "numberOfBytes": "32"
      }
    }
  }
}